{
  "_format": "hh-sol-artifact-1",
  "contractName": "NFTMarketPlace",
  "sourceName": "contracts/NFTMarketPlace.sol",
  "abi": [
    {
      "inputs": [],
      "stateMutability": "nonpayable",
      "type": "constructor"
    },
    {
      "inputs": [
        {
          "internalType": "address",
          "name": "sender",
          "type": "address"
        },
        {
          "internalType": "uint256",
          "name": "tokenId",
          "type": "uint256"
        },
        {
          "internalType": "address",
          "name": "owner",
          "type": "address"
        }
      ],
      "name": "ERC721IncorrectOwner",
      "type": "error"
    },
    {
      "inputs": [
        {
          "internalType": "address",
          "name": "operator",
          "type": "address"
        },
        {
          "internalType": "uint256",
          "name": "tokenId",
          "type": "uint256"
        }
      ],
      "name": "ERC721InsufficientApproval",
      "type": "error"
    },
    {
      "inputs": [
        {
          "internalType": "address",
          "name": "approver",
          "type": "address"
        }
      ],
      "name": "ERC721InvalidApprover",
      "type": "error"
    },
    {
      "inputs": [
        {
          "internalType": "address",
          "name": "operator",
          "type": "address"
        }
      ],
      "name": "ERC721InvalidOperator",
      "type": "error"
    },
    {
      "inputs": [
        {
          "internalType": "address",
          "name": "owner",
          "type": "address"
        }
      ],
      "name": "ERC721InvalidOwner",
      "type": "error"
    },
    {
      "inputs": [
        {
          "internalType": "address",
          "name": "receiver",
          "type": "address"
        }
      ],
      "name": "ERC721InvalidReceiver",
      "type": "error"
    },
    {
      "inputs": [
        {
          "internalType": "address",
          "name": "sender",
          "type": "address"
        }
      ],
      "name": "ERC721InvalidSender",
      "type": "error"
    },
    {
      "inputs": [
        {
          "internalType": "uint256",
          "name": "tokenId",
          "type": "uint256"
        }
      ],
      "name": "ERC721NonexistentToken",
      "type": "error"
    },
    {
      "anonymous": false,
      "inputs": [
        {
          "indexed": true,
          "internalType": "address",
          "name": "owner",
          "type": "address"
        },
        {
          "indexed": true,
          "internalType": "address",
          "name": "approved",
          "type": "address"
        },
        {
          "indexed": true,
          "internalType": "uint256",
          "name": "tokenId",
          "type": "uint256"
        }
      ],
      "name": "Approval",
      "type": "event"
    },
    {
      "anonymous": false,
      "inputs": [
        {
          "indexed": true,
          "internalType": "address",
          "name": "owner",
          "type": "address"
        },
        {
          "indexed": true,
          "internalType": "address",
          "name": "operator",
          "type": "address"
        },
        {
          "indexed": false,
          "internalType": "bool",
          "name": "approved",
          "type": "bool"
        }
      ],
      "name": "ApprovalForAll",
      "type": "event"
    },
    {
      "anonymous": false,
      "inputs": [
        {
          "indexed": false,
          "internalType": "uint256",
          "name": "_fromTokenId",
          "type": "uint256"
        },
        {
          "indexed": false,
          "internalType": "uint256",
          "name": "_toTokenId",
          "type": "uint256"
        }
      ],
      "name": "BatchMetadataUpdate",
      "type": "event"
    },
    {
      "anonymous": false,
      "inputs": [
        {
          "indexed": false,
          "internalType": "uint256",
          "name": "_tokenId",
          "type": "uint256"
        }
      ],
      "name": "MetadataUpdate",
      "type": "event"
    },
    {
      "anonymous": false,
      "inputs": [
        {
          "indexed": true,
          "internalType": "address",
          "name": "from",
          "type": "address"
        },
        {
          "indexed": true,
          "internalType": "address",
          "name": "to",
          "type": "address"
        },
        {
          "indexed": true,
          "internalType": "uint256",
          "name": "tokenId",
          "type": "uint256"
        }
      ],
      "name": "Transfer",
      "type": "event"
    },
    {
      "anonymous": false,
      "inputs": [
        {
          "indexed": true,
          "internalType": "uint256",
          "name": "tokenId",
          "type": "uint256"
        },
        {
          "indexed": false,
          "internalType": "address",
          "name": "seller",
          "type": "address"
        },
        {
          "indexed": false,
          "internalType": "address",
          "name": "owner",
          "type": "address"
        },
        {
          "indexed": false,
          "internalType": "uint256",
          "name": "price",
          "type": "uint256"
        },
        {
          "indexed": false,
          "internalType": "bool",
          "name": "sold",
          "type": "bool"
        }
      ],
      "name": "idMarketItemCreated",
      "type": "event"
    },
    {
      "inputs": [
        {
          "internalType": "address",
          "name": "to",
          "type": "address"
        },
        {
          "internalType": "uint256",
          "name": "tokenId",
          "type": "uint256"
        }
      ],
      "name": "approve",
      "outputs": [],
      "stateMutability": "nonpayable",
      "type": "function"
    },
    {
      "inputs": [
        {
          "internalType": "address",
          "name": "owner",
          "type": "address"
        }
      ],
      "name": "balanceOf",
      "outputs": [
        {
          "internalType": "uint256",
          "name": "",
          "type": "uint256"
        }
      ],
      "stateMutability": "view",
      "type": "function"
    },
    {
      "inputs": [
        {
          "internalType": "uint256",
          "name": "_tokenId",
          "type": "uint256"
        }
      ],
      "name": "createMarketSale",
      "outputs": [],
      "stateMutability": "payable",
      "type": "function"
    },
    {
      "inputs": [
        {
          "internalType": "string",
          "name": "_tokenURI",
          "type": "string"
        },
        {
          "internalType": "uint256",
          "name": "_price",
          "type": "uint256"
        }
      ],
      "name": "createToken",
      "outputs": [
        {
          "internalType": "uint256",
          "name": "",
          "type": "uint256"
        }
      ],
      "stateMutability": "payable",
      "type": "function"
    },
    {
      "inputs": [],
      "name": "fetchItemsListed",
      "outputs": [
        {
          "components": [
            {
              "internalType": "uint256",
              "name": "tokenId",
              "type": "uint256"
            },
            {
              "internalType": "address payable",
              "name": "seller",
              "type": "address"
            },
            {
              "internalType": "address payable",
              "name": "owner",
              "type": "address"
            },
            {
              "internalType": "uint256",
              "name": "price",
              "type": "uint256"
            },
            {
              "internalType": "bool",
              "name": "sold",
              "type": "bool"
            }
          ],
          "internalType": "struct NFTMarketPlace.MarketItem[]",
          "name": "",
          "type": "tuple[]"
        }
      ],
      "stateMutability": "view",
      "type": "function"
    },
    {
      "inputs": [],
      "name": "fetchMarketItems",
      "outputs": [
        {
          "components": [
            {
              "internalType": "uint256",
              "name": "tokenId",
              "type": "uint256"
            },
            {
              "internalType": "address payable",
              "name": "seller",
              "type": "address"
            },
            {
              "internalType": "address payable",
              "name": "owner",
              "type": "address"
            },
            {
              "internalType": "uint256",
              "name": "price",
              "type": "uint256"
            },
            {
              "internalType": "bool",
              "name": "sold",
              "type": "bool"
            }
          ],
          "internalType": "struct NFTMarketPlace.MarketItem[]",
          "name": "",
          "type": "tuple[]"
        }
      ],
      "stateMutability": "view",
      "type": "function"
    },
    {
      "inputs": [],
      "name": "fetchMyNFT",
      "outputs": [
        {
          "components": [
            {
              "internalType": "uint256",
              "name": "tokenId",
              "type": "uint256"
            },
            {
              "internalType": "address payable",
              "name": "seller",
              "type": "address"
            },
            {
              "internalType": "address payable",
              "name": "owner",
              "type": "address"
            },
            {
              "internalType": "uint256",
              "name": "price",
              "type": "uint256"
            },
            {
              "internalType": "bool",
              "name": "sold",
              "type": "bool"
            }
          ],
          "internalType": "struct NFTMarketPlace.MarketItem[]",
          "name": "",
          "type": "tuple[]"
        }
      ],
      "stateMutability": "view",
      "type": "function"
    },
    {
      "inputs": [
        {
          "internalType": "uint256",
          "name": "tokenId",
          "type": "uint256"
        }
      ],
      "name": "getApproved",
      "outputs": [
        {
          "internalType": "address",
          "name": "",
          "type": "address"
        }
      ],
      "stateMutability": "view",
      "type": "function"
    },
    {
      "inputs": [],
      "name": "getListingPrice",
      "outputs": [
        {
          "internalType": "uint256",
          "name": "",
          "type": "uint256"
        }
      ],
      "stateMutability": "view",
      "type": "function"
    },
    {
      "inputs": [
        {
          "internalType": "address",
          "name": "owner",
          "type": "address"
        },
        {
          "internalType": "address",
          "name": "operator",
          "type": "address"
        }
      ],
      "name": "isApprovedForAll",
      "outputs": [
        {
          "internalType": "bool",
          "name": "",
          "type": "bool"
        }
      ],
      "stateMutability": "view",
      "type": "function"
    },
    {
      "inputs": [],
      "name": "name",
      "outputs": [
        {
          "internalType": "string",
          "name": "",
          "type": "string"
        }
      ],
      "stateMutability": "view",
      "type": "function"
    },
    {
      "inputs": [
        {
          "internalType": "uint256",
          "name": "tokenId",
          "type": "uint256"
        }
      ],
      "name": "ownerOf",
      "outputs": [
        {
          "internalType": "address",
          "name": "",
          "type": "address"
        }
      ],
      "stateMutability": "view",
      "type": "function"
    },
    {
      "inputs": [
        {
          "internalType": "uint256",
          "name": "_tokenId",
          "type": "uint256"
        },
        {
          "internalType": "uint256",
          "name": "_price",
          "type": "uint256"
        }
      ],
      "name": "resellToken",
      "outputs": [],
      "stateMutability": "payable",
      "type": "function"
    },
    {
      "inputs": [
        {
          "internalType": "address",
          "name": "from",
          "type": "address"
        },
        {
          "internalType": "address",
          "name": "to",
          "type": "address"
        },
        {
          "internalType": "uint256",
          "name": "tokenId",
          "type": "uint256"
        }
      ],
      "name": "safeTransferFrom",
      "outputs": [],
      "stateMutability": "nonpayable",
      "type": "function"
    },
    {
      "inputs": [
        {
          "internalType": "address",
          "name": "from",
          "type": "address"
        },
        {
          "internalType": "address",
          "name": "to",
          "type": "address"
        },
        {
          "internalType": "uint256",
          "name": "tokenId",
          "type": "uint256"
        },
        {
          "internalType": "bytes",
          "name": "data",
          "type": "bytes"
        }
      ],
      "name": "safeTransferFrom",
      "outputs": [],
      "stateMutability": "nonpayable",
      "type": "function"
    },
    {
      "inputs": [
        {
          "internalType": "address",
          "name": "operator",
          "type": "address"
        },
        {
          "internalType": "bool",
          "name": "approved",
          "type": "bool"
        }
      ],
      "name": "setApprovalForAll",
      "outputs": [],
      "stateMutability": "nonpayable",
      "type": "function"
    },
    {
      "inputs": [
        {
          "internalType": "bytes4",
          "name": "interfaceId",
          "type": "bytes4"
        }
      ],
      "name": "supportsInterface",
      "outputs": [
        {
          "internalType": "bool",
          "name": "",
          "type": "bool"
        }
      ],
      "stateMutability": "view",
      "type": "function"
    },
    {
      "inputs": [],
      "name": "symbol",
      "outputs": [
        {
          "internalType": "string",
          "name": "",
          "type": "string"
        }
      ],
      "stateMutability": "view",
      "type": "function"
    },
    {
      "inputs": [
        {
          "internalType": "uint256",
          "name": "tokenId",
          "type": "uint256"
        }
      ],
      "name": "tokenURI",
      "outputs": [
        {
          "internalType": "string",
          "name": "",
          "type": "string"
        }
      ],
      "stateMutability": "view",
      "type": "function"
    },
    {
      "inputs": [
        {
          "internalType": "address",
          "name": "from",
          "type": "address"
        },
        {
          "internalType": "address",
          "name": "to",
          "type": "address"
        },
        {
          "internalType": "uint256",
          "name": "tokenId",
          "type": "uint256"
        }
      ],
      "name": "transferFrom",
      "outputs": [],
      "stateMutability": "nonpayable",
      "type": "function"
    },
    {
      "inputs": [
        {
          "internalType": "uint256",
          "name": "_listingPrice",
          "type": "uint256"
        }
      ],
      "name": "updateListingPrice",
      "outputs": [],
      "stateMutability": "payable",
      "type": "function"
    }
  ],
  "bytecode": "0x60806040526605543df729c000600a553480156200001c57600080fd5b506040518060400160405280601381526020017f4e4654204d657461766172736520546f6b656e000000000000000000000000008152506040518060400160405280600581526020017f4d594e465400000000000000000000000000000000000000000000000000000081525081600090816200009a919062000370565b508060019081620000ac919062000370565b50505033600960006101000a81548173ffffffffffffffffffffffffffffffffffffffff021916908373ffffffffffffffffffffffffffffffffffffffff16021790555062000457565b600081519050919050565b7f4e487b7100000000000000000000000000000000000000000000000000000000600052604160045260246000fd5b7f4e487b7100000000000000000000000000000000000000000000000000000000600052602260045260246000fd5b600060028204905060018216806200017857607f821691505b6020821081036200018e576200018d62000130565b5b50919050565b60008190508160005260206000209050919050565b60006020601f8301049050919050565b600082821b905092915050565b600060088302620001f87fffffffffffffffffffffffffffffffffffffffffffffffffffffffffffffffff82620001b9565b620002048683620001b9565b95508019841693508086168417925050509392505050565b6000819050919050565b6000819050919050565b6000620002516200024b62000245846200021c565b62000226565b6200021c565b9050919050565b6000819050919050565b6200026d8362000230565b620002856200027c8262000258565b848454620001c6565b825550505050565b600090565b6200029c6200028d565b620002a981848462000262565b505050565b5b81811015620002d157620002c560008262000292565b600181019050620002af565b5050565b601f8211156200032057620002ea8162000194565b620002f584620001a9565b8101602085101562000305578190505b6200031d6200031485620001a9565b830182620002ae565b50505b505050565b600082821c905092915050565b6000620003456000198460080262000325565b1980831691505092915050565b600062000360838362000332565b9150826002028217905092915050565b6200037b82620000f6565b67ffffffffffffffff81111562000397576200039662000101565b5b620003a382546200015f565b620003b0828285620002d5565b600060209050601f831160018114620003e85760008415620003d3578287015190505b620003df858262000352565b8655506200044f565b601f198416620003f88662000194565b60005b828110156200042257848901518255600182019150602085019450602081019050620003fb565b868310156200044257848901516200043e601f89168262000332565b8355505b6001600288020188555050505b505050505050565b613bfc80620004676000396000f3fe60806040526004361061012a5760003560e01c806370a08231116100ab578063b88d4fde1161006f578063b88d4fde146103ea578063be9af53614610413578063c18763f71461042f578063c87b56dd1461045a578063e219fc7514610497578063e985e9c5146104b35761012a565b806370a082311461030d57806372b3b6201461034a57806395d89b411461037a578063a22cb465146103a5578063ae677aa3146103ce5761012a565b806312e85585116100f257806312e855851461022857806323b872dd1461025357806342842e0e1461027c57806345f8fa80146102a55780636352211e146102d05761012a565b806301ffc9a71461012f57806306fdde031461016c578063081812fc14610197578063095ea7b3146101d45780630f08efe0146101fd575b600080fd5b34801561013b57600080fd5b5061015660048036038101906101519190612ae3565b6104f0565b6040516101639190612b2b565b60405180910390f35b34801561017857600080fd5b50610181610551565b60405161018e9190612bd6565b60405180910390f35b3480156101a357600080fd5b506101be60048036038101906101b99190612c2e565b6105e3565b6040516101cb9190612c9c565b60405180910390f35b3480156101e057600080fd5b506101fb60048036038101906101f69190612ce3565b6105ff565b005b34801561020957600080fd5b50610212610615565b60405161021f9190612e79565b60405180910390f35b34801561023457600080fd5b5061023d610868565b60405161024a9190612eaa565b60405180910390f35b34801561025f57600080fd5b5061027a60048036038101906102759190612ec5565b610872565b005b34801561028857600080fd5b506102a3600480360381019061029e9190612ec5565b610974565b005b3480156102b157600080fd5b506102ba610994565b6040516102c79190612e79565b60405180910390f35b3480156102dc57600080fd5b506102f760048036038101906102f29190612c2e565b610c79565b6040516103049190612c9c565b60405180910390f35b34801561031957600080fd5b50610334600480360381019061032f9190612f18565b610c8b565b6040516103419190612eaa565b60405180910390f35b610364600480360381019061035f919061307a565b610d45565b6040516103719190612eaa565b60405180910390f35b34801561038657600080fd5b5061038f610d8e565b60405161039c9190612bd6565b60405180910390f35b3480156103b157600080fd5b506103cc60048036038101906103c79190613102565b610e20565b005b6103e860048036038101906103e39190612c2e565b610e36565b005b3480156103f657600080fd5b50610411600480360381019061040c91906131e3565b610ed0565b005b61042d60048036038101906104289190612c2e565b610eed565b005b34801561043b57600080fd5b50610444611133565b6040516104519190612e79565b60405180910390f35b34801561046657600080fd5b50610481600480360381019061047c9190612c2e565b611418565b60405161048e9190612bd6565b60405180910390f35b6104b160048036038101906104ac9190613266565b61152b565b005b3480156104bf57600080fd5b506104da60048036038101906104d591906132a6565b61172e565b6040516104e79190612b2b565b60405180910390f35b6000634906490660e01b7bffffffffffffffffffffffffffffffffffffffffffffffffffffffff1916827bffffffffffffffffffffffffffffffffffffffffffffffffffffffff1916148061054a5750610549826117c2565b5b9050919050565b60606000805461056090613315565b80601f016020809104026020016040519081016040528092919081815260200182805461058c90613315565b80156105d95780601f106105ae576101008083540402835291602001916105d9565b820191906000526020600020905b8154815290600101906020018083116105bc57829003601f168201915b5050505050905090565b60006105ee826118a4565b506105f88261192c565b9050919050565b610611828261060c611969565b611971565b5050565b60606000600754905060006008546007546106309190613375565b90506000808267ffffffffffffffff81111561064f5761064e612f4f565b5b60405190808252806020026020018201604052801561068857816020015b610675612a1a565b81526020019060019003908161066d5790505b50905060005b8481101561085d573073ffffffffffffffffffffffffffffffffffffffff16600b60006001846106be91906133a9565b815260200190815260200160002060020160009054906101000a900473ffffffffffffffffffffffffffffffffffffffff1673ffffffffffffffffffffffffffffffffffffffff160361084a57600060018261071a91906133a9565b90506000600b60008381526020019081526020016000209050806040518060a0016040529081600082015481526020016001820160009054906101000a900473ffffffffffffffffffffffffffffffffffffffff1673ffffffffffffffffffffffffffffffffffffffff1673ffffffffffffffffffffffffffffffffffffffff1681526020016002820160009054906101000a900473ffffffffffffffffffffffffffffffffffffffff1673ffffffffffffffffffffffffffffffffffffffff1673ffffffffffffffffffffffffffffffffffffffff168152602001600382015481526020016004820160009054906101000a900460ff16151515158152505084868151811061082d5761082c6133dd565b5b602002602001018190525060018561084591906133a9565b945050505b80806108559061340c565b91505061068e565b508094505050505090565b6000600a54905090565b600073ffffffffffffffffffffffffffffffffffffffff168273ffffffffffffffffffffffffffffffffffffffff16036108e45760006040517f64a0ae920000000000000000000000000000000000000000000000000000000081526004016108db9190612c9c565b60405180910390fd5b60006108f883836108f3611969565b611983565b90508373ffffffffffffffffffffffffffffffffffffffff168173ffffffffffffffffffffffffffffffffffffffff161461096e578382826040517f64283d7b00000000000000000000000000000000000000000000000000000000815260040161096593929190613454565b60405180910390fd5b50505050565b61098f83838360405180602001604052806000815250610ed0565b505050565b60606000600754905060008060005b83811015610a43573373ffffffffffffffffffffffffffffffffffffffff16600b60006001846109d391906133a9565b815260200190815260200160002060010160009054906101000a900473ffffffffffffffffffffffffffffffffffffffff1673ffffffffffffffffffffffffffffffffffffffff1603610a3057600183610a2d91906133a9565b92505b8080610a3b9061340c565b9150506109a3565b5060008267ffffffffffffffff811115610a6057610a5f612f4f565b5b604051908082528060200260200182016040528015610a9957816020015b610a86612a1a565b815260200190600190039081610a7e5790505b50905060005b84811015610c6e573373ffffffffffffffffffffffffffffffffffffffff16600b6000600184610acf91906133a9565b815260200190815260200160002060010160009054906101000a900473ffffffffffffffffffffffffffffffffffffffff1673ffffffffffffffffffffffffffffffffffffffff1603610c5b576000600182610b2b91906133a9565b90506000600b60008381526020019081526020016000209050806040518060a0016040529081600082015481526020016001820160009054906101000a900473ffffffffffffffffffffffffffffffffffffffff1673ffffffffffffffffffffffffffffffffffffffff1673ffffffffffffffffffffffffffffffffffffffff1681526020016002820160009054906101000a900473ffffffffffffffffffffffffffffffffffffffff1673ffffffffffffffffffffffffffffffffffffffff1673ffffffffffffffffffffffffffffffffffffffff168152602001600382015481526020016004820160009054906101000a900460ff161515151581525050848681518110610c3e57610c3d6133dd565b5b6020026020010181905250600185610c5691906133a9565b945050505b8080610c669061340c565b915050610a9f565b508094505050505090565b6000610c84826118a4565b9050919050565b60008073ffffffffffffffffffffffffffffffffffffffff168273ffffffffffffffffffffffffffffffffffffffff1603610cfe5760006040517f89c62b64000000000000000000000000000000000000000000000000000000008152600401610cf59190612c9c565b60405180910390fd5b600360008373ffffffffffffffffffffffffffffffffffffffff1673ffffffffffffffffffffffffffffffffffffffff168152602001908152602001600020549050919050565b600060076000815480929190610d5a9061340c565b919050555060006007549050610d703382611b9d565b610d7a8185611c96565b610d848184611cf2565b8091505092915050565b606060018054610d9d90613315565b80601f0160208091040260200160405190810160405280929190818152602001828054610dc990613315565b8015610e165780601f10610deb57610100808354040283529160200191610e16565b820191906000526020600020905b815481529060010190602001808311610df957829003601f168201915b5050505050905090565b610e32610e2b611969565b8383611ef5565b5050565b3373ffffffffffffffffffffffffffffffffffffffff16600960009054906101000a900473ffffffffffffffffffffffffffffffffffffffff1673ffffffffffffffffffffffffffffffffffffffff1614610ec6576040517f08c379a0000000000000000000000000000000000000000000000000000000008152600401610ebd906134fd565b60405180910390fd5b80600a8190555050565b610edb848484610872565b610ee784848484612064565b50505050565b6000600b6000838152602001908152602001600020600301549050803414610f4a576040517f08c379a0000000000000000000000000000000000000000000000000000000008152600401610f419061358f565b60405180910390fd5b33600b600084815260200190815260200160002060020160006101000a81548173ffffffffffffffffffffffffffffffffffffffff021916908373ffffffffffffffffffffffffffffffffffffffff1602179055506001600b600084815260200190815260200160002060040160006101000a81548160ff0219169083151502179055506000600b600084815260200190815260200160002060020160006101000a81548173ffffffffffffffffffffffffffffffffffffffff021916908373ffffffffffffffffffffffffffffffffffffffff160217905550600860008154809291906110379061340c565b919050555061104730338461221b565b600960009054906101000a900473ffffffffffffffffffffffffffffffffffffffff1673ffffffffffffffffffffffffffffffffffffffff166108fc600a549081150290604051600060405180830381858888f193505050501580156110b1573d6000803e3d6000fd5b50600b600083815260200190815260200160002060010160009054906101000a900473ffffffffffffffffffffffffffffffffffffffff1673ffffffffffffffffffffffffffffffffffffffff166108fc349081150290604051600060405180830381858888f1935050505015801561112e573d6000803e3d6000fd5b505050565b60606000600754905060008060005b838110156111e2573373ffffffffffffffffffffffffffffffffffffffff16600b600060018461117291906133a9565b815260200190815260200160002060020160009054906101000a900473ffffffffffffffffffffffffffffffffffffffff1673ffffffffffffffffffffffffffffffffffffffff16036111cf576001836111cc91906133a9565b92505b80806111da9061340c565b915050611142565b5060008267ffffffffffffffff8111156111ff576111fe612f4f565b5b60405190808252806020026020018201604052801561123857816020015b611225612a1a565b81526020019060019003908161121d5790505b50905060005b8481101561140d573373ffffffffffffffffffffffffffffffffffffffff16600b600060018461126e91906133a9565b815260200190815260200160002060020160009054906101000a900473ffffffffffffffffffffffffffffffffffffffff1673ffffffffffffffffffffffffffffffffffffffff16036113fa5760006001826112ca91906133a9565b90506000600b60008381526020019081526020016000209050806040518060a0016040529081600082015481526020016001820160009054906101000a900473ffffffffffffffffffffffffffffffffffffffff1673ffffffffffffffffffffffffffffffffffffffff1673ffffffffffffffffffffffffffffffffffffffff1681526020016002820160009054906101000a900473ffffffffffffffffffffffffffffffffffffffff1673ffffffffffffffffffffffffffffffffffffffff1673ffffffffffffffffffffffffffffffffffffffff168152602001600382015481526020016004820160009054906101000a900460ff1615151515815250508486815181106113dd576113dc6133dd565b5b60200260200101819052506001856113f591906133a9565b945050505b80806114059061340c565b91505061123e565b508094505050505090565b6060611423826118a4565b50600060066000848152602001908152602001600020805461144490613315565b80601f016020809104026020016040519081016040528092919081815260200182805461147090613315565b80156114bd5780601f10611492576101008083540402835291602001916114bd565b820191906000526020600020905b8154815290600101906020018083116114a057829003601f168201915b5050505050905060006114ce612388565b905060008151036114e3578192505050611526565b6000825111156115185780826040516020016115009291906135eb565b60405160208183030381529060405292505050611526565b6115218461239f565b925050505b919050565b3373ffffffffffffffffffffffffffffffffffffffff16600b600084815260200190815260200160002060020160009054906101000a900473ffffffffffffffffffffffffffffffffffffffff1673ffffffffffffffffffffffffffffffffffffffff16146115cf576040517f08c379a00000000000000000000000000000000000000000000000000000000081526004016115c690613681565b60405180910390fd5b600a543414611613576040517f08c379a000000000000000000000000000000000000000000000000000000000815260040161160a90613713565b60405180910390fd5b6000600b600084815260200190815260200160002060040160006101000a81548160ff02191690831515021790555080600b60008481526020019081526020016000206003018190555033600b600084815260200190815260200160002060010160006101000a81548173ffffffffffffffffffffffffffffffffffffffff021916908373ffffffffffffffffffffffffffffffffffffffff16021790555030600b600084815260200190815260200160002060020160006101000a81548173ffffffffffffffffffffffffffffffffffffffff021916908373ffffffffffffffffffffffffffffffffffffffff1602179055506007600081548092919061171a90613733565b919050555061172a33308461221b565b5050565b6000600560008473ffffffffffffffffffffffffffffffffffffffff1673ffffffffffffffffffffffffffffffffffffffff16815260200190815260200160002060008373ffffffffffffffffffffffffffffffffffffffff1673ffffffffffffffffffffffffffffffffffffffff16815260200190815260200160002060009054906101000a900460ff16905092915050565b60007f80ac58cd000000000000000000000000000000000000000000000000000000007bffffffffffffffffffffffffffffffffffffffffffffffffffffffff1916827bffffffffffffffffffffffffffffffffffffffffffffffffffffffff1916148061188d57507f5b5e139f000000000000000000000000000000000000000000000000000000007bffffffffffffffffffffffffffffffffffffffffffffffffffffffff1916827bffffffffffffffffffffffffffffffffffffffffffffffffffffffff1916145b8061189d575061189c82612408565b5b9050919050565b6000806118b083612472565b9050600073ffffffffffffffffffffffffffffffffffffffff168173ffffffffffffffffffffffffffffffffffffffff160361192357826040517f7e27328900000000000000000000000000000000000000000000000000000000815260040161191a9190612eaa565b60405180910390fd5b80915050919050565b60006004600083815260200190815260200160002060009054906101000a900473ffffffffffffffffffffffffffffffffffffffff169050919050565b600033905090565b61197e83838360016124af565b505050565b60008061198f84612472565b9050600073ffffffffffffffffffffffffffffffffffffffff168373ffffffffffffffffffffffffffffffffffffffff16146119d1576119d0818486612674565b5b600073ffffffffffffffffffffffffffffffffffffffff168173ffffffffffffffffffffffffffffffffffffffff1614611a6257611a136000856000806124af565b6001600360008373ffffffffffffffffffffffffffffffffffffffff1673ffffffffffffffffffffffffffffffffffffffff168152602001908152602001600020600082825403925050819055505b600073ffffffffffffffffffffffffffffffffffffffff168573ffffffffffffffffffffffffffffffffffffffff1614611ae5576001600360008773ffffffffffffffffffffffffffffffffffffffff1673ffffffffffffffffffffffffffffffffffffffff168152602001908152602001600020600082825401925050819055505b846002600086815260200190815260200160002060006101000a81548173ffffffffffffffffffffffffffffffffffffffff021916908373ffffffffffffffffffffffffffffffffffffffff160217905550838573ffffffffffffffffffffffffffffffffffffffff168273ffffffffffffffffffffffffffffffffffffffff167fddf252ad1be2c89b69c2b068fc378daa952ba7f163c4a11628f55a4df523b3ef60405160405180910390a4809150509392505050565b600073ffffffffffffffffffffffffffffffffffffffff168273ffffffffffffffffffffffffffffffffffffffff1603611c0f5760006040517f64a0ae92000000000000000000000000000000000000000000000000000000008152600401611c069190612c9c565b60405180910390fd5b6000611c1d83836000611983565b9050600073ffffffffffffffffffffffffffffffffffffffff168173ffffffffffffffffffffffffffffffffffffffff1614611c915760006040517f73c6ac6e000000000000000000000000000000000000000000000000000000008152600401611c889190612c9c565b60405180910390fd5b505050565b80600660008481526020019081526020016000209081611cb69190613908565b507ff8e1a15aba9398e019f0b49df1a4fde98ee17ae345cb5f6b5e2c27f5033e8ce782604051611ce69190612eaa565b60405180910390a15050565b60008111611d35576040517f08c379a0000000000000000000000000000000000000000000000000000000008152600401611d2c90613a26565b60405180910390fd5b600a543414611d79576040517f08c379a0000000000000000000000000000000000000000000000000000000008152600401611d7090613713565b60405180910390fd5b6040518060a001604052808381526020013373ffffffffffffffffffffffffffffffffffffffff1681526020013073ffffffffffffffffffffffffffffffffffffffff16815260200182815260200160001515815250600b60008481526020019081526020016000206000820151816000015560208201518160010160006101000a81548173ffffffffffffffffffffffffffffffffffffffff021916908373ffffffffffffffffffffffffffffffffffffffff16021790555060408201518160020160006101000a81548173ffffffffffffffffffffffffffffffffffffffff021916908373ffffffffffffffffffffffffffffffffffffffff1602179055506060820151816003015560808201518160040160006101000a81548160ff021916908315150217905550905050611eb233308461221b565b817fdebdb32cb5230ab727c9c361b16fdb2015df225c10e6a3e7f60ecd5dc5be45163330846000604051611ee99493929190613a46565b60405180910390a25050565b600073ffffffffffffffffffffffffffffffffffffffff168273ffffffffffffffffffffffffffffffffffffffff1603611f6657816040517f5b08ba18000000000000000000000000000000000000000000000000000000008152600401611f5d9190612c9c565b60405180910390fd5b80600560008573ffffffffffffffffffffffffffffffffffffffff1673ffffffffffffffffffffffffffffffffffffffff16815260200190815260200160002060008473ffffffffffffffffffffffffffffffffffffffff1673ffffffffffffffffffffffffffffffffffffffff16815260200190815260200160002060006101000a81548160ff0219169083151502179055508173ffffffffffffffffffffffffffffffffffffffff168373ffffffffffffffffffffffffffffffffffffffff167f17307eab39ab6107e8899845ad3d59bd9653f200f220920489ca2b5937696c31836040516120579190612b2b565b60405180910390a3505050565b60008373ffffffffffffffffffffffffffffffffffffffff163b1115612215578273ffffffffffffffffffffffffffffffffffffffff1663150b7a026120a8611969565b8685856040518563ffffffff1660e01b81526004016120ca9493929190613ae0565b6020604051808303816000875af192505050801561210657506040513d601f19601f820116820180604052508101906121039190613b41565b60015b61218a573d8060008114612136576040519150601f19603f3d011682016040523d82523d6000602084013e61213b565b606091505b50600081510361218257836040517f64a0ae920000000000000000000000000000000000000000000000000000000081526004016121799190612c9c565b60405180910390fd5b805181602001fd5b63150b7a0260e01b7bffffffffffffffffffffffffffffffffffffffffffffffffffffffff1916817bffffffffffffffffffffffffffffffffffffffffffffffffffffffff19161461221357836040517f64a0ae9200000000000000000000000000000000000000000000000000000000815260040161220a9190612c9c565b60405180910390fd5b505b50505050565b600073ffffffffffffffffffffffffffffffffffffffff168273ffffffffffffffffffffffffffffffffffffffff160361228d5760006040517f64a0ae920000000000000000000000000000000000000000000000000000000081526004016122849190612c9c565b60405180910390fd5b600061229b83836000611983565b9050600073ffffffffffffffffffffffffffffffffffffffff168173ffffffffffffffffffffffffffffffffffffffff160361230e57816040517f7e2732890000000000000000000000000000000000000000000000000000000081526004016123059190612eaa565b60405180910390fd5b8373ffffffffffffffffffffffffffffffffffffffff168173ffffffffffffffffffffffffffffffffffffffff1614612382578382826040517f64283d7b00000000000000000000000000000000000000000000000000000000815260040161237993929190613454565b60405180910390fd5b50505050565b606060405180602001604052806000815250905090565b60606123aa826118a4565b5060006123b5612388565b905060008151116123d55760405180602001604052806000815250612400565b806123df84612738565b6040516020016123f09291906135eb565b6040516020818303038152906040525b915050919050565b60007f01ffc9a7000000000000000000000000000000000000000000000000000000007bffffffffffffffffffffffffffffffffffffffffffffffffffffffff1916827bffffffffffffffffffffffffffffffffffffffffffffffffffffffff1916149050919050565b60006002600083815260200190815260200160002060009054906101000a900473ffffffffffffffffffffffffffffffffffffffff169050919050565b80806124e85750600073ffffffffffffffffffffffffffffffffffffffff168273ffffffffffffffffffffffffffffffffffffffff1614155b1561261c5760006124f8846118a4565b9050600073ffffffffffffffffffffffffffffffffffffffff168373ffffffffffffffffffffffffffffffffffffffff161415801561256357508273ffffffffffffffffffffffffffffffffffffffff168173ffffffffffffffffffffffffffffffffffffffff1614155b80156125765750612574818461172e565b155b156125b857826040517fa9fbf51f0000000000000000000000000000000000000000000000000000000081526004016125af9190612c9c565b60405180910390fd5b811561261a57838573ffffffffffffffffffffffffffffffffffffffff168273ffffffffffffffffffffffffffffffffffffffff167f8c5be1e5ebec7d5bd14f71427d1e84f3dd0314c0f7b2291e5b200ac8c7c3b92560405160405180910390a45b505b836004600085815260200190815260200160002060006101000a81548173ffffffffffffffffffffffffffffffffffffffff021916908373ffffffffffffffffffffffffffffffffffffffff16021790555050505050565b61267f838383612806565b61273357600073ffffffffffffffffffffffffffffffffffffffff168373ffffffffffffffffffffffffffffffffffffffff16036126f457806040517f7e2732890000000000000000000000000000000000000000000000000000000081526004016126eb9190612eaa565b60405180910390fd5b81816040517f177e802f00000000000000000000000000000000000000000000000000000000815260040161272a929190613b6e565b60405180910390fd5b505050565b606060006001612747846128c7565b01905060008167ffffffffffffffff81111561276657612765612f4f565b5b6040519080825280601f01601f1916602001820160405280156127985781602001600182028036833780820191505090505b509050600082602001820190505b6001156127fb578080600190039150507f3031323334353637383961626364656600000000000000000000000000000000600a86061a8153600a85816127ef576127ee613b97565b5b049450600085036127a6575b819350505050919050565b60008073ffffffffffffffffffffffffffffffffffffffff168373ffffffffffffffffffffffffffffffffffffffff16141580156128be57508273ffffffffffffffffffffffffffffffffffffffff168473ffffffffffffffffffffffffffffffffffffffff16148061287f575061287e848461172e565b5b806128bd57508273ffffffffffffffffffffffffffffffffffffffff166128a58361192c565b73ffffffffffffffffffffffffffffffffffffffff16145b5b90509392505050565b600080600090507a184f03e93ff9f4daa797ed6e38ed64bf6a1f0100000000000000008310612925577a184f03e93ff9f4daa797ed6e38ed64bf6a1f010000000000000000838161291b5761291a613b97565b5b0492506040810190505b6d04ee2d6d415b85acef81000000008310612962576d04ee2d6d415b85acef8100000000838161295857612957613b97565b5b0492506020810190505b662386f26fc10000831061299157662386f26fc10000838161298757612986613b97565b5b0492506010810190505b6305f5e10083106129ba576305f5e10083816129b0576129af613b97565b5b0492506008810190505b61271083106129df5761271083816129d5576129d4613b97565b5b0492506004810190505b60648310612a0257606483816129f8576129f7613b97565b5b0492506002810190505b600a8310612a11576001810190505b80915050919050565b6040518060a0016040528060008152602001600073ffffffffffffffffffffffffffffffffffffffff168152602001600073ffffffffffffffffffffffffffffffffffffffff168152602001600081526020016000151581525090565b6000604051905090565b600080fd5b600080fd5b60007fffffffff0000000000000000000000000000000000000000000000000000000082169050919050565b612ac081612a8b565b8114612acb57600080fd5b50565b600081359050612add81612ab7565b92915050565b600060208284031215612af957612af8612a81565b5b6000612b0784828501612ace565b91505092915050565b60008115159050919050565b612b2581612b10565b82525050565b6000602082019050612b406000830184612b1c565b92915050565b600081519050919050565b600082825260208201905092915050565b60005b83811015612b80578082015181840152602081019050612b65565b60008484015250505050565b6000601f19601f8301169050919050565b6000612ba882612b46565b612bb28185612b51565b9350612bc2818560208601612b62565b612bcb81612b8c565b840191505092915050565b60006020820190508181036000830152612bf08184612b9d565b905092915050565b6000819050919050565b612c0b81612bf8565b8114612c1657600080fd5b50565b600081359050612c2881612c02565b92915050565b600060208284031215612c4457612c43612a81565b5b6000612c5284828501612c19565b91505092915050565b600073ffffffffffffffffffffffffffffffffffffffff82169050919050565b6000612c8682612c5b565b9050919050565b612c9681612c7b565b82525050565b6000602082019050612cb16000830184612c8d565b92915050565b612cc081612c7b565b8114612ccb57600080fd5b50565b600081359050612cdd81612cb7565b92915050565b60008060408385031215612cfa57612cf9612a81565b5b6000612d0885828601612cce565b9250506020612d1985828601612c19565b9150509250929050565b600081519050919050565b600082825260208201905092915050565b6000819050602082019050919050565b612d5881612bf8565b82525050565b6000612d6982612c5b565b9050919050565b612d7981612d5e565b82525050565b612d8881612b10565b82525050565b60a082016000820151612da46000850182612d4f565b506020820151612db76020850182612d70565b506040820151612dca6040850182612d70565b506060820151612ddd6060850182612d4f565b506080820151612df06080850182612d7f565b50505050565b6000612e028383612d8e565b60a08301905092915050565b6000602082019050919050565b6000612e2682612d23565b612e308185612d2e565b9350612e3b83612d3f565b8060005b83811015612e6c578151612e538882612df6565b9750612e5e83612e0e565b925050600181019050612e3f565b5085935050505092915050565b60006020820190508181036000830152612e938184612e1b565b905092915050565b612ea481612bf8565b82525050565b6000602082019050612ebf6000830184612e9b565b92915050565b600080600060608486031215612ede57612edd612a81565b5b6000612eec86828701612cce565b9350506020612efd86828701612cce565b9250506040612f0e86828701612c19565b9150509250925092565b600060208284031215612f2e57612f2d612a81565b5b6000612f3c84828501612cce565b91505092915050565b600080fd5b600080fd5b7f4e487b7100000000000000000000000000000000000000000000000000000000600052604160045260246000fd5b612f8782612b8c565b810181811067ffffffffffffffff82111715612fa657612fa5612f4f565b5b80604052505050565b6000612fb9612a77565b9050612fc58282612f7e565b919050565b600067ffffffffffffffff821115612fe557612fe4612f4f565b5b612fee82612b8c565b9050602081019050919050565b82818337600083830152505050565b600061301d61301884612fca565b612faf565b90508281526020810184848401111561303957613038612f4a565b5b613044848285612ffb565b509392505050565b600082601f83011261306157613060612f45565b5b813561307184826020860161300a565b91505092915050565b6000806040838503121561309157613090612a81565b5b600083013567ffffffffffffffff8111156130af576130ae612a86565b5b6130bb8582860161304c565b92505060206130cc85828601612c19565b9150509250929050565b6130df81612b10565b81146130ea57600080fd5b50565b6000813590506130fc816130d6565b92915050565b6000806040838503121561311957613118612a81565b5b600061312785828601612cce565b9250506020613138858286016130ed565b9150509250929050565b600067ffffffffffffffff82111561315d5761315c612f4f565b5b61316682612b8c565b9050602081019050919050565b600061318661318184613142565b612faf565b9050828152602081018484840111156131a2576131a1612f4a565b5b6131ad848285612ffb565b509392505050565b600082601f8301126131ca576131c9612f45565b5b81356131da848260208601613173565b91505092915050565b600080600080608085870312156131fd576131fc612a81565b5b600061320b87828801612cce565b945050602061321c87828801612cce565b935050604061322d87828801612c19565b925050606085013567ffffffffffffffff81111561324e5761324d612a86565b5b61325a878288016131b5565b91505092959194509250565b6000806040838503121561327d5761327c612a81565b5b600061328b85828601612c19565b925050602061329c85828601612c19565b9150509250929050565b600080604083850312156132bd576132bc612a81565b5b60006132cb85828601612cce565b92505060206132dc85828601612cce565b9150509250929050565b7f4e487b7100000000000000000000000000000000000000000000000000000000600052602260045260246000fd5b6000600282049050600182168061332d57607f821691505b6020821081036133405761333f6132e6565b5b50919050565b7f4e487b7100000000000000000000000000000000000000000000000000000000600052601160045260246000fd5b600061338082612bf8565b915061338b83612bf8565b92508282039050818111156133a3576133a2613346565b5b92915050565b60006133b482612bf8565b91506133bf83612bf8565b92508282019050808211156133d7576133d6613346565b5b92915050565b7f4e487b7100000000000000000000000000000000000000000000000000000000600052603260045260246000fd5b600061341782612bf8565b91507fffffffffffffffffffffffffffffffffffffffffffffffffffffffffffffffff820361344957613448613346565b5b600182019050919050565b60006060820190506134696000830186612c8d565b6134766020830185612e9b565b6134836040830184612c8d565b949350505050565b7f4f6e6c79206f776e6572206f6620746865206d61726b6574706c61636520636160008201527f6e206368616e676520746865206c6c697374696e672070726963650000000000602082015250565b60006134e7603b83612b51565b91506134f28261348b565b604082019050919050565b60006020820190508181036000830152613516816134da565b9050919050565b7f506c65617365207375626d6974207468652061736b696e67207072696365206960008201527f6e206f7264657220746f20636f6d706c65746520746865207075726368617365602082015250565b6000613579604083612b51565b91506135848261351d565b604082019050919050565b600060208201905081810360008301526135a88161356c565b9050919050565b600081905092915050565b60006135c582612b46565b6135cf81856135af565b93506135df818560208601612b62565b80840191505092915050565b60006135f782856135ba565b915061360382846135ba565b91508190509392505050565b7f4f6e6c79206974656d206f776e65722063616e20706572666f726d207468697360008201527f206f7065726174696f6e00000000000000000000000000000000000000000000602082015250565b600061366b602a83612b51565b91506136768261360f565b604082019050919050565b6000602082019050818103600083015261369a8161365e565b9050919050565b7f5072696365206d75737420626520657175616c20746f206c697374696e67207060008201527f7269636500000000000000000000000000000000000000000000000000000000602082015250565b60006136fd602483612b51565b9150613708826136a1565b604082019050919050565b6000602082019050818103600083015261372c816136f0565b9050919050565b600061373e82612bf8565b91506000820361375157613750613346565b5b600182039050919050565b60008190508160005260206000209050919050565b60006020601f8301049050919050565b600082821b905092915050565b6000600883026137be7fffffffffffffffffffffffffffffffffffffffffffffffffffffffffffffffff82613781565b6137c88683613781565b95508019841693508086168417925050509392505050565b6000819050919050565b60006138056138006137fb84612bf8565b6137e0565b612bf8565b9050919050565b6000819050919050565b61381f836137ea565b61383361382b8261380c565b84845461378e565b825550505050565b600090565b61384861383b565b613853818484613816565b505050565b5b818110156138775761386c600082613840565b600181019050613859565b5050565b601f8211156138bc5761388d8161375c565b61389684613771565b810160208510156138a5578190505b6138b96138b185613771565b830182613858565b50505b505050565b600082821c905092915050565b60006138df600019846008026138c1565b1980831691505092915050565b60006138f883836138ce565b9150826002028217905092915050565b61391182612b46565b67ffffffffffffffff81111561392a57613929612f4f565b5b6139348254613315565b61393f82828561387b565b600060209050601f8311600181146139725760008415613960578287015190505b61396a85826138ec565b8655506139d2565b601f1984166139808661375c565b60005b828110156139a857848901518255600182019150602085019450602081019050613983565b868310156139c557848901516139c1601f8916826138ce565b8355505b6001600288020188555050505b505050505050565b7f5072696365206d757374206265206174206c6561737420310000000000000000600082015250565b6000613a10601883612b51565b9150613a1b826139da565b602082019050919050565b60006020820190508181036000830152613a3f81613a03565b9050919050565b6000608082019050613a5b6000830187612c8d565b613a686020830186612c8d565b613a756040830185612e9b565b613a826060830184612b1c565b95945050505050565b600081519050919050565b600082825260208201905092915050565b6000613ab282613a8b565b613abc8185613a96565b9350613acc818560208601612b62565b613ad581612b8c565b840191505092915050565b6000608082019050613af56000830187612c8d565b613b026020830186612c8d565b613b0f6040830185612e9b565b8181036060830152613b218184613aa7565b905095945050505050565b600081519050613b3b81612ab7565b92915050565b600060208284031215613b5757613b56612a81565b5b6000613b6584828501613b2c565b91505092915050565b6000604082019050613b836000830185612c8d565b613b906020830184612e9b565b9392505050565b7f4e487b7100000000000000000000000000000000000000000000000000000000600052601260045260246000fdfea26469706673582212205d1594652b84c75ab5353f13829230c8ea00119b8dd66458541dd1f5288b84a864736f6c63430008140033",
  "linkReferences": {},
  "deployedLinkReferences": {}
}